:020000040800F2
:1000000000000120E9250008752500087725000873
:10001000792500087B2500087D25000800000000E8
:100020000000000000000000000000007F25000824
:1000300081250008000000008325000885250008B0
:100040003926000839260008392600083926000814
:100050003926000839260008392600083926000804
:1000600039260008392600083926000839260008F4
:1000700039260008392600083926000839260008E4
:1000800039260008392600083926000839260008D4
:1000900039260008392600083926000839260008C4
:1000A00039260008392600083926000839260008B4
:1000B0003926000800000000000000003926000872
:1000C0003926000800000000000000003926000862
:1000D00000000000892500089525000800000000A8
:1000E0003926000839260008000000000000000042
:1000F0000000000000000000000000000000000000
:100100000000000000000000000000003926000888
:100110000000000000000000392600083926000811
:100120003926000839260008392600083926000833
:100130003926000800000000000000000000000058
:100140003926000839260008392600083926000813
:100150003926000839260008392600083926000803
:10016000392600083926000839260008000000005A
:1001700039260008392600080000000000000000B1
:0C0180003926000839260008392600083E
:10018C0010B5054C237833B9044B13B10448AFF3C5
:10019C0000800123237010BD7C00002000000000B3
:1001AC009426000808B5034B1BB103490348AFF371
:1001BC00008008BD0000000080000020942600088C
:1001CC0053B94AB9002908BF00281CBF4FF0FF31B2
:1001DC004FF0FF3000F07AB9ADF1080C6DE904CEA8
:1001EC0000F006F8DDF804E0DDE9022304B0704706
:1001FC002DE9F0478C460D460446089E002B51D144
:10020C008A4217466DD9B2FA82FEBEF1000F0BD0AE
:10021C00CEF1200C01FA0EF520FA0CFC02FA0EF7C6
:10022C004CEA050C00FA0EF44FEA174A250CBCFBFD
:10023C00FAF81FFA87F90AFB18CC45EA0C4508FBBB
:10024C0009F3AB420AD9ED1908F1FF3280F0238192
:10025C00AB4240F22081A8F102083D44ED1AA4B251
:10026C00B5FBFAF00AFB105544EA054400FB09F90A
:10027C00A14509D9E41900F1FF3380F00A81A145A9
:10028C0040F2078102383C44A4EB090440EA0840E0
:10029C000021002E61D024FA0EF400233460736028
:1002AC00BDE8F0878B4207D9002E54D0002186E898
:1002BC0021000846BDE8F087B3FA83F1002940F02D
:1002CC008E80AB4202D3824200F2FA80841A65EB34
:1002DC0003050120AC46002E3FD086E81010BDE887
:1002EC00F08712B90127B7FBF2F7B7FA87FEBEF118
:1002FC00000F34D1EB1B3A0C1FFA87FC0121B3FB26
:10030C00F2F8250C02FB183345EA03450CFB08F305
:10031C00AB4207D9ED1908F1FF3002D2AB4200F223
:10032C00D1808046ED1AA3B2B5FBF2F002FB10555A
:10033C0043EA05440CFB00FCA44507D9E41900F181
:10034C00FF3302D2A44500F2B8801846A4EB0C048B
:10035C0040EA08409DE731463046BDE8F087CEF1D3
:10036C00200405FA0EF307FA0EF720FA04F83A0CFB
:10037C0025FA04F448EA0308B4FBF2F14FEA1845F5
:10038C0002FB11441FFA87FC45EA044501FB0CF300
:10039C00AB4200FA0EF409D9ED1901F1FF3080F0EF
:1003AC008A80AB4240F2878002393D44EB1A1FFA37
:1003BC0088F5B3FBF2F002FB103345EA034500FB72
:1003CC000CF3AB4207D9ED1900F1FF386FD2AB42F9
:1003DC006DD902383D44EB1A40EA01418FE7C1F177
:1003EC00200722FA07F88B4005FA01F448EA0303C8
:1003FC0020FA07FE4FEA134CFD404EEA040EB5FB03
:10040C00FCF94FEA1E440CFB19551FFA83F844EA19
:10041C00054509FB08F4AC4202FA01F200FA01FAB4
:10042C0008D9ED1809F1FF3043D2AC4241D9A9F1FA
:10043C0002091D442D1B1FFA8EFEB5FBFCF00CFBB4
:10044C0010554EEA054400FB08F8A04507D9E418FE
:10045C0000F1FF3529D2A04527D902381C4440EAC7
:10046C000940A4EB0804A0FB02894C45C6464D4646
:10047C0015D312D056B1BAEB0E0364EB050404FA93
:10048C0007F7CB401F43CC40376074600021BDE8B8
:10049C00F0871846F8E69046E0E6C245EAD2B8EB9B
:1004AC00020E69EB03050138E4E72846D7E740461E
:1004BC0091E78146BEE7014678E702383C4445E7C0
:1004CC00084608E7A8F102083D442BE7704700BF37
:1004DC0038B50A4B054618684FF47A73B0FBF3F045
:1004EC0000F07EF8044638B9024629464FF0FF303A
:1004FC0000F036F8204638BD012038BD78000020C9
:10050C0010B5032000F01AF80020FFF7E1FF0446B5
:10051C0018B901F053FF204610BD0124FBE7000081
:10052C00024A136801331360704700BFA00000201B
:10053C00014B1868704700BFA0000020074AD36821
:10054C0023F4E0631B041B0C43F0BF63000243F471
:10055C00003300F4E0600343D360704700ED00E02B
:10056C00174B30B5DC68C4F30224C4F10703251D16
:10057C00042B28BF0423062D4FF0010505FA03F3C5
:10058C0003F1FF338CBF033C00241940A14005FA52
:10059C0004F4013C2240002842EA01024FEA021214
:1005AC00AFBF00F1604000F00F00064BD2B2A5BF08
:1005BC0000F56140D2B21A5480F8002330BD00BF60
:1005CC0000ED00E014ED00E04209012300F01F00F3
:1005DC0003FA00F0014B43F82200704700E100E001
:1005EC000138B0F1807F0AD2064B074A5860F021DF
:1005FC0082F823100020072298601A6070470120AF
:10060C00704700BF10E000E000ED00E090F82520FE
:10061C00022A10B503D00422C263012010BD026867
:10062C00046C1168836B21F00E011160116821F0CC
:10063C0001011160426C012102F01C0201FA02F26C
:10064C006260002480F8251080F8244013B198478C
:10065C00204610BD184610BD2DE9F04F85B00B6833
:10066C00DFF85881534A01934FF00F090023019C86
:10067C00DC4002D105B0BDE8F08F012404FA03FA86
:10068C00019C14EA0A0500F08F804C6824F0100BD2
:10069C00BBF1020F11D1DF0800EB870703F0070E47
:1006AC003E6A4FEA8E0E09FA0EFC26EA0C0C0E6915
:1006BC0006FA0EF646EA0C063E624FEA430C032796
:1006CC00066807FA0CF7FF4304F0030E3E400EFADF
:1006DC000CFE0BF1FF3B4EEA0606BBF1010F066068
:1006EC0011D8866806EA070BCE6806FA0CFE4EEAAD
:1006FC000B068660466826EA0A0AC4F300169E407A
:10070C0046EA0A064660C66837408E6806FA0CF65A
:10071C003743E600C76047D5D8F8606046F001065D
:10072C00C8F86060D8F8606023F0030707F18047D1
:10073C0006F0010607F58037039603F0030E039EBF
:10074C00BE684FEA8E0E09FA0EFCB0F1904F26EA05
:10075C000C0C2BD0184EB0422AD006F58066B04255
:10076C0014BF0726022606FA0EF646EA0C06BE60F1
:10077C001668EF4314F4803F0CBF3E402E431660C6
:10078C00566814F4003F0CBF3E402E4356609668EA
:10079C0014F4801F0CBF3E402E439660D668A40212
:1007AC0054BF3E402E43D660013360E70026DAE7A3
:1007BC000126D8E700040140000400480010024064
:1007CC000AB181617047816270470000024A136868
:1007DC0043F480731360704700700040024B18683C
:1007EC0000F4C060704700BF00700040174B1A68DF
:1007FC00B0F5007F02F4C0621CD1B2F5007F15D0B9
:10080C001A6822F4C06242F400721A60104A11682D
:10081C0032224A430F49B2FBF1F2194601325869B0
:10082C00400500D522B94B695B050DD400207047FB
:10083C00013AF4E7B2F5806F1FBF1A6822F4C06268
:10084C0042F480621A60F1E70320704700700040A8
:10085C007800002040420F0037B51E4DAB6DDA001A
:10086C00044618D5FFF7BAFFB0F5007F23D1802CD2
:10087C0029D9A02C8CBF02200120174A136823F021
:10088C00070303431360136803F00703181A18BF18
:10089C00012003B030BDAB6D43F08053AB65AB6D45
:1008AC0003F080530193019BFFF798FFAB6D23F08E
:1008BC008053AB65D8E7802C07D808D0A4F170031F
:1008CC0058425841D9E70020D7E70320D5E702204A
:1008DC00D3E700BF0010024000200240254B9A686D
:1008EC00D96812F00C0205D00C2A15D101F00301C5
:1008FC00012918D119682048090755BFD3F894105D
:10090C001968C1F30321C1F3031150F8210082B31C
:10091C000C2A09D000207047042A29D0082A17482D
:10092C0018BF002070470020D968DA6801F0030175
:10093C00C2F30212022902F1010205D0032912D0DE
:10094C00D968C1F3062103E0D9680D48C1F306212B
:10095C00DB68B0FBF2F0C3F34163013348435B0047
:10096C00B0FBF3F07047D9680448C1F30621EFE7F8
:10097C000348704700100240D826000800127A0085
:10098C000024F4002DE9F743054608B9012046E0A0
:10099C00A84C0368A668E768DB0606F00C0607F0AF
:1009AC00030772D51EB10C2E51D1012F4FD12368E4
:1009BC00980702D5AB69002BE8D02368286A190781
:1009CC0056BFD4F8943023681B0903F0F00383421C
:1009DC0028D2FFF741FF0028D8D1236843F0080341
:1009EC00236023682A6A23F0F003134323606368AF
:1009FC00EA6923F47F4343EA02236360FFF76EFF47
:100A0C00A3688D4AC3F30313D35C03F01F03D840D0
:100A1C008A4B18600020FFF75BFD002835D003B02F
:100A2C00BDE8F083236843F008032360236823F0B8
:100A3C00F003034323606368EA6923F47F4343EACA
:100A4C0002236360FFF708FF0028D7D09EE7AB694D
:100A5C00002B3AD0236843F001032360FFF768FDB5
:100A6C00804623689A0728D5236843F0080323603F
:100A7C0023682A6A23F0F003134323606368EA694E
:100A8C0023F47F4343EA022363602B68D8072DD4F9
:100A9C002B6899076BD42B68180700F1A0802B6882
:100AAC00590700F1CD802B68990600F13681AB6AAD
:100ABC00002B40F05C810020B1E7FFF739FDA0EB83
:100ACC0008000228CDD90320A9E7236823F00103ED
:100ADC002360FFF72DFD804623689B07D5D5FFF7D4
:100AEC0027FDA0EB08000228F6D9ECE7082E03D06E
:100AFC000C2E08D1032F06D123689A03C8D56B6836
:100B0C00002BC5D142E76B68B3F5803F10D1236849
:100B1C0043F480332360FFF70BFD804623689B036F
:100B2C00B6D4FFF705FDA0EB08006428F6D9CAE798
:100B3C00B3F5A02F04D1236843F480232360E6E7A8
:100B4C00226822F480322260226822F48022226001
:100B5C00002BE0D1FFF7ECFC80462368980397D577
:100B6C00FFF7E6FCA0EB08006428F6D9ABE7042EEF
:100B7C0003D00C2E10D1022F0ED12368590503D5AA
:100B8C00EB68002B3FF402AF63682A6923F0F8533B
:100B9C0043EA026363607EE7EB687BB1236843F44E
:100BAC0080732360FFF7C4FC074623685A05EBD417
:100BBC00FFF7BEFCC01B0228F7D984E7236823F497
:100BCC0080732360FFF7B4FC074623685B057FF551
:100BDC0062AFFFF7ADFCC01B0228F6D973E76B6957
:100BEC009BB1D4F8943043F00103C4F89430FFF770
:100BFC009FFC0746D4F894309A073FF550AFFFF7A7
:100C0C0097FCC01B0228F5D95DE7D4F8943023F08B
:100C1C000103C4F89430FFF78BFC0746D4F89430EA
:100C2C009B077FF53CAFFFF783FCC01B0228F5D96F
:100C3C0049E700BF00100240BD26000878000020E4
:100C4C00A36DD80029D4A36D43F08053A365A36D85
:100C5C0003F080530193019B4FF00108714F3B68E7
:100C6C00D9051DD5AB68012B2BD1D4F8903043F0AE
:100C7C000103C4F89030FFF75BFC41F2883907465A
:100C8C00D4F890309B0742D5B8F1000F3FF40BAF6E
:100C9C00A36D23F08053A36505E74FF00008DDE753
:100CAC003B6843F480733B60FFF742FC81463B6832
:100CBC00DA05D7D4FFF73CFCA0EB09000228F6D9E3
:100CCC0001E7052B06D1D4F8903043F00403C4F8A7
:100CDC009030CAE7D4F8902022F00102C4F890209A
:100CEC00D4F8902022F00402C4F89020002BC2D13A
:100CFC00FFF71EFC41F288390746D4F8903098076C
:100D0C00C2D5FFF715FCC01B4845F6D9DBE6FFF74B
:100D1C000FFCC01B4845B3D9D5E66B6A9BB1D4F820
:100D2C00983043F00103C4F89830FFF701FC0746F4
:100D3C00D4F898309A073FF5BAAEFFF7F9FBC01B11
:100D4C000228F5D9BFE6D4F8983023F00103C4F893
:100D5C009830FFF7EDFB0746D4F898309B077FF5EA
:100D6C00A6AEFFF7E5FBC01B0228F5D9ABE60C2EAF
:100D7C003FF40CAE022B236823F08073236036D132
:100D8C00FFF7D6FB0646236898012AD4AB6B6A6B37
:100D9C00DB0643EA0223EA6A13432A6B013A43EA6D
:100DAC000213EA6B5208013A43EA42532A6C520886
:100DBC00013A43EA4263E360236843F080732360A3
:100DCC00E36843F08073E360FFF7B2FB05462368EA
:100DDC0099013FF570AEFFF7ABFB401B0228F6D92B
:100DEC0071E6FFF7A5FB801B0228CCD96BE62368C4
:100DFC001A015EBFE36823F00303E360E36823F0AA
:100E0C00887323F48033E360FFF792FB0546236875
:100E1C009B017FF550AEFFF78BFB401B0228F6D9E8
:100E2C0051E600BF007000402DE9F0410E4604462B
:100E3C0010B90120BDE8F081404A136803F00703A4
:100E4C008B4229D32368D90731D421688A075BD414
:100E5C003A4A136803F007039E425DD311F0040F66
:100E6C00374D64D10B0706D5AB68226923F4605368
:100E7C0043EAC203AB60FFF731FDAB68314AC3F301
:100E8C000313BDE8F041D35C03F01F03D8402E4B95
:100E9C0018600020FFF71CBB136823F007030B43FB
:100EAC001360136803F007039942C2D1CAE7626862
:100EBC00234D032A2B681BD113F0007FB9D0AB68EC
:100ECC0023F003031343AB60FFF732FB41F2883886
:100EDC000746AB68626803F00C03B3EB820FB4D027
:100EEC00FFF726FBC01B4045F3D90320BDE8F0817A
:100EFC00022A02D113F4003FE0E712B913F0020FFB
:100F0C00DCE713F4806FD9E70D4AA068936823F0EF
:100F1C00F003034393609BE7136823F00703334309
:100F2C001360136803F007039E4282D196E7AB6807
:100F3C00E26823F4E0631343AB6093E700200240C4
:100F4C0000100240BD26000878000020054B064A20
:100F5C009B68C3F30223D35C044A106803F01F039D
:100F6C00D840704700100240CD26000878000020C1
:100F7C00054B064A9B68C3F3C223D35C044A106832
:100F8C0003F01F03D840704700100240CD26000824
:100F9C0078000020F8B5444BDA6812F0030F0546D0
:100FAC000E461C46006839D0DA6802F00302824211
:100FBC004BD1002A49D0DB686A68C3F302130133B2
:100FCC00934242D1236823F080632360FFF7B0FA89
:100FDC00074623681A0141D4AF68002E45D0012E74
:100FEC004FD12269286922F4C002400822F4FE4243
:100FFC00013842EA072242EA40522261236843F058
:10100C0080632360FFF794FA064623681B0145D5DD
:10101C002369AA69134323610020F8BD022810D06C
:10102C00032814D0012810D11B689F07F5D5E3685D
:10103C006A6823F07303013A184340EA0210E06037
:10104C00C0E71B6813F4806FF1D10120F8BD1A685A
:10105C009103ECD41B6813F4802FF5E7FFF768FAC3
:10106C00C01B0228B5D90320F8BD2269E96822F01B
:10107C007842C90641EA072322F4FE421343236156
:10108C00BCE72369686923F0C063400823F4FE437E
:10109C00013843EA072343EA4063F0E7FFF748FAD5
:1010AC00801B0228B1D9DEE7001002402DE9F7437E
:1010BC00056815F4006504460ED0C16BB1F5000F40
:1010CC0053D0B1F5400F55D000295ED10430FFF755
:1010DC0061FF054600284DD023689E0363D5934ECF
:1010EC00B36DD80040F116810027DFF84482D8F8A0
:1010FC00003043F48073C8F80030FFF719FA8146CA
:10110C00D8F80030D90542D5002D47D1D6F890300B
:10111C0013F4407314D0226D934211D0D6F8903052
:10112C00D6F8902042F48032C6F89020D6F8902061
:10113C0023F4407322F48032C6F89020C6F8903025
:10114C00DA0709D5FFF7F4F941F288398046D6F869
:10115C0090309B0740F1C080D6F89030226D23F47C
:10116C0040731343C6F8903018E0704AD36843F4C8
:10117C008033D3606D4AE16BD2F8883023F440039E
:10118C000B43C2F888300025A6E70125A4E7FFF73A
:10119C00CFF9A0EB09000228B2D903251FB1B36D1A
:1011AC0023F08053B3652368DF0708D55F49206AB5
:1011BC00D1F8882022F003020243C1F888209E0750
:1011CC0008D55A49606AD1F8882022F00C020243F3
:1011DC00C1F88820980608D55449A06AD1F888200F
:1011EC0022F440620243C1F88820990508D54F4982
:1011FC00606BD1F8882022F440220243C1F8882089
:10120C005A0508D54949A06BD1F8882022F4401220
:10121C000243C1F888205F0608D54449E06AD1F83A
:10122C00882022F440520243C1F88820DE0508D5FC
:10123C003E49206BD1F8882022F440320243C1F899
:10124C00882098040FD5394A216CD2F8883023F0C5
:10125C0040630B43B1F1006FC2F8883044D1D368BE
:10126C0043F48013D360236859030FD52F4A616C64
:10127C00D2F8883023F040630B43B1F1006FC2F811
:10128C0088303CD1D36843F48013D36023685A046C
:10129C0012D52649A26CD1F8883023F04053134361
:1012AC00B2F1805FC1F8883006D10221201DFFF712
:1012BC0071FE002818BF054623681B0408D51B4A7D
:1012CC00E16CD2F8883023F080430B43C2F88830AD
:1012DC00284603B0BDE8F083FFF72AF9A0EB08001D
:1012EC0048457FF634AF58E7B1F1806FBBD101218F
:1012FC00201DFFF74FFE002818BF0546B3E7B1F1DC
:10130C00806FC3D10121201DFFF744FE002818BFB8
:10131C000546BBE7B36D43F08053B365B36D03F083
:10132C0080530193019B0127DFE600BF00100240B0
:10133C0000700040024A136843F0040313607047C6
:10134C0000100240036A23F001030362036A70B5C4
:10135C00456882690C6822F4803222F073022243C1
:10136C008C6823F002032343124CA04206D0124E89
:10137C00B04203D006F58066B04214D1CE6823F09B
:10138C0008033343A04223F0040306D00A4CA042C6
:10139C0003D004F58064A04205D14C698E6925F414
:1013AC00407534432543456082614A684263036259
:1013BC0070BD00BF002C014000400140036A23F4C3
:1013CC0080730362036A426870B5C4690D6824F4C3
:1013DC00803424F073042C438D6823F4007343EAA7
:1013EC0005230F4DA8420ED1CD6823F4006343EAC8
:1013FC00052323F480634D698E6922F440523543F2
:10140C0042EA051205E0074DA842F4D0064DA84269
:10141C00F1D042604A68C461C263036270BD00BF10
:10142C00002C01400040014000440140036A23F4B9
:10143C0080530362026A30B54468C3690D6823F0B7
:10144C00807323F4E64343EA05238D6822F40052AB
:10145C0042EA05320A4DA84207D005F5A055A8422C
:10146C0003D005F58065A84204D14D6924F480446D
:10147C0044EA85144460C3614B680364026230BD66
:10148C00002C0140036A23F480330362026A30B5F6
:10149C004468436D0D6823F4803323F070032B43B1
:1014AC008D6822F4003242EA05420B4DA84207D067
:1014BC0005F5A055A84203D005F58065A84204D1D6
:1014CC004D6924F4803444EA0524446043654B6838
:1014DC008365026230BD00BF002C0140036A23F417
:1014EC0080130362026A30B54468436D0D6823F0C3
:1014FC00807323F4E04343EA05238D6822F4001241
:10150C0042EA05520A4DA84207D005F5A055A8425B
:10151C0003D005F58065A84204D14D6924F48024DC
:10152C0044EA8524446043654B68C365026230BD60
:10153C00002C01401A4A0368904210B502D0B0F159
:10154C00804F09D14C6823F07003904243EA0403A6
:10155C0009D0B0F1804F06D0124A904203D002F568
:10156C008062904203D1CA6823F4407313434A69E2
:10157C0023F08003134303608B68C3620B688362A0
:10158C00074B984207D003F5A053984203D003F5BC
:10159C008063984201D10B6903630123436110BD41
:1015AC00002C01400040014010B50446A0B190F859
:1015BC003D3003F0FF021BB980F83C2000F016FF11
:1015CC00022384F83D302068211DFFF7B3FF01236F
:1015DC0084F83D30002010BD012010BD036A23F0BB
:1015EC0010030362036A426870B584690D6824F0C5
:1015FC00807424F4E64444EA05248D6823F0200327
:10160C0043EA05130E4DA8420ED1CD6823F080039A
:10161C0043EA051323F040034D698E6922F44062BE
:10162C00354342EA850205E0064DA842F4D0064D4A
:10163C00A842F1D042604A6884618263036270BD43
:10164C00002C0140004001400044014038B590F8A6
:10165C003C30012B04464FF0020010D00123082A25
:10166C0084F83C3084F83D0043D009D8FAB1042A00
:10167C002ED00123002084F83D3084F83C0038BD86
:10168C00102A47D0142A56D00C2AF2D12068FFF722
:10169C00CDFE23680969DA6942F40062DA61DA691D
:1016AC0022F48062DA61DA6942EA012230E02068D1
:1016BC00FFF748FE236809699A6942F008029A61AB
:1016CC009A6922F004029A619A690A439A61D0E7F6
:1016DC002068FFF783FF236809699A6942F4006266
:1016EC009A619A6922F480629A619A6942EA0122AB
:1016FC00ECE72068FFF762FE23680969DA6942F0BB
:10170C000802DA61DA6922F00402DA61DA690A4362
:10171C00DA61AEE72068FFF7B5FE236809695A6DF8
:10172C0042F008025A655A6D22F004025A655A6D4D
:10173C000A435A659DE72068FFF7D0FE23680969C4
:10174C005A6D42F400625A655A6D22F480625A65F1
:10175C005A6D42EA0122ECE7036A01F01F0110B551
:10176C0001248C4023EA04030362036A8A401A436F
:10177C00026210BD10B5044601220068FFF7ECFFB1
:10178C002368104A934217D002F5A052934213D00B
:10179C0002F5806293420FD099680B4801400629EC
:1017AC0008D09A680240B2F5803F03D01A6842F024
:1017BC0001021A60002010BD5A6C42F400425A64B7
:1017CC00EAE700BF002C01400700010090F83C3014
:1017DC00012B30B54FF002031BD002680E4D80F880
:1017EC003D3053689468AA4202BF4D6823F47003DD
:1017FC002B430D68896823F070032B4324F080047D
:10180C00536021430123916080F83D30002380F820
:10181C003C30184630BD00BF002C014090F83C30E5
:10182C00012B10B534D0CB688A681A4C23F4407362
:10183C0013434A6823F4806313430A6823F4006358
:10184C0013430A6923F4805313434A6923F4005366
:10185C0013438A6A23F4804313438A6923F4702365
:10186C0043EA02430268A2420CD14C6A23F470038F
:10187C0043EA0453CC69096A23F08073234323F0B1
:10188C0000730B435364002380F83C30184610BDA2
:10189C00022010BD002C014003681A6822F49072DB
:1018AC001A609A6822F001029A60202380F8723044
:1018BC00002303667047000090F87230202B49D14A
:1018CC00002945D0002A43D090F87030012B41D02C
:1018DC00012380F870300023036683684165B3F5FB
:1018EC00805FA0F85820A0F85A2021D10269EAB9EB
:1018FC0040F2FF12A0F85C2000224267222280F8FE
:10190C00722002689168B3F5805F41F0010191602B
:10191C001CD10369D3B9104B1168036641F4907163
:10192C00002380F87030116018467047FF22E1E701
:10193C0023B90269002AF9D07F22DBE7B3F1805F7B
:10194C00DAD10269002AF7D03F22D3E7034BE3E751
:10195C000120704702207047C51900086F19000854
:10196C00704790F87220222A38B502681ED1928CEA
:10197C00446DB0F85C10651C0A4045652270B0F8E7
:10198C005A20013A92B2A0F85A20A2B901680C6808
:10199C0024F490740C608C6824F001048C60202179
:1019AC0080F87210026600F0F7FC38BD138B9BB206
:1019BC0043F00803138338BD90F87220222A10B527
:1019CC0002681DD1948CB0F85C100C40416D21F86C
:1019DC00024B4165B0F85A10013989B2A0F85A107F
:1019EC0099B9146824F490741460946824F0010478
:1019FC009460202280F87220016600F0CDFC10BDAE
:101A0C00138B9BB243F00803138310BD7047000087
:101A1C000368DA69196870B5160704469D680AD11F
:101A2C00960664D58E0662D5036E002B00F083807B
:101A3C00BDE87040184715F0010002D111F4907FF9
:101A4C0055D0D50707D5CE0505D501251D62656F87
:101A5C0045F001056567950706D528B102251D627D
:101A6C00656F45F004056567560706D528B1042552
:101A7C001D62656F45F002056567150707D58E0673
:101A8C0000D420B108201862636F03436367636F4F
:101A9C00002B50D0950605D5880603D5236E0BB1C7
:101AAC0020469847636F1907204604D423689D6825
:101ABC0015F0400517D0FFF7EFFE23689A68520621
:101ACC000DD59A68E06E22F040029A6038B11A4B3C
:101ADC008363FEF79BFD70B3E06E836BA8E7204633
:101AEC00FFF794FF70BDFFF791FF656770BDD602DD
:101AFC0009D5680207D54FF4801220461A62BDE85A
:101B0C00704000F087BA160605D50D0603D5636E36
:101B1C008BB120468CE750060DD54A060BD51A68BA
:101B2C0022F040021A60202384F87130002363668F
:101B3C002046FFF715FF70BD491B000808B5806AE9
:101B4C000023A0F85A30A0F85230FFF75FFF08BD11
:101B5C000268C169F8B504468368006915680343D7
:101B6C006069034382480B43284003431360536866
:101B7C00E06823F44053034353607E4BA0699A42C0
:101B8C001CBF236A1843936823F4306303439360A8
:101B9C00794B9A4214D103F55843784AD3F88830DC
:101BAC0003F00303B1F5004FD35C40F0AA80082B7F
:101BBC0020D8DFE803F0778F921F9B1F1F1F9E001A
:101BCC006F4B9A4207D103F5E6336E4AD3F888304F
:101BDC0003F00C03E6E7674B9A4240F0C28003F532
:101BEC00C833D3F8885005F44065B5F5806F2AD01A
:101BFC0006D815B301220023236663661046F8BD90
:101C0C00B5F5006F06D0B5F5406FF3D14FF4004039
:101C1C00082501E05C480225626802EB420383421E
:101C2C00E8D8B0EB023FE5D8082D38D8DFE805F04E
:101C3C000F3726372E3737373100FFF787F9002853
:101C4C00EAD10246D7E7FEF749FE0425F7E7FFF78E
:101C5C007DF962684FF4807156080027E1FB00673C
:101C6C00002330463946FEF7ABFA0022474BA0F56D
:101C7C0040719942BED82368D860BCE744485508E7
:101C8C0000230021401941F10001ECE7FEF726FE8C
:101C9C00DFE750080021002310F50000F3E70122D4
:101CAC000020E3E7FFF752F961684A0802EB4003B2
:101CBC00B3FBF1F39BB20022A3F110004FF6EF71CE
:101CCC00884297D823F00F012068C3F342030B43DB
:101CDC00C36090E7FFF74CF9E6E76068430803F14F
:101CEC00F47303F59043B3FBF0F3E3E7FEF7F6FD73
:101CFC00DAE76068430803F58033F4E70122002338
:101D0C00DAE7082B30D8DFE803F005181B2F242F57
:101D1C002F2F2700FFF71AF9626800EB5203B3FB71
:101D2C00F2F39BB20022A3F110004FF6EF71884240
:101D3C003FF660AF2168CB605DE7FFF719F9EBE781
:101D4C006068430803F5740303F51053B3FBF0F319
:101D5C00E7E7FEF7C3FDDFE76068430803F50043E0
:101D6C00F4E7B1F5004FC9D001220023DBE700BF37
:101D7C00F369FFEF0080004000380140AC260008FA
:101D8C0000440040B02600080024F400FFFC0F00C3
:101D9C00000024F4436ADA0710B506D50168846A9A
:101DAC004A6822F4003222434A609C0706D5016837
:101DBC00C46A4A6822F4803222434A60590706D525
:101DCC000168046B4A6822F4802222434A601A0795
:101DDC0006D50168446B4A6822F4004222434A60EB
:101DEC00DC0606D50168846B8A6822F48052224393
:101DFC008A60990606D50168C46B8A6822F4005281
:101E0C0022438A605A060FD50168046C4A6822F492
:101E1C0080122243B4F5801F4A6005D14A68446C95
:101E2C0022F4C00222434A601B0606D50268816C6C
:101E3C00536823F400230B43536010BD2DE9F0418C
:101E4C00069D04460F46164698462168CA6937EA2D
:101E5C0002030CBF01220022B24202D00020BDE8D6
:101E6C00F0816B1CF2D09DB923681A6822F4D072F1
:101E7C001A609A6822F001029A60202384F871306B
:101E8C0084F87230002384F870300320BDE8F081B0
:101E9C00FEF74EFBA0EB08008542D6D2E4E72DE915
:101EAC00F3411F4690F87130202B04460D469046A6
:101EBC004AD1002946D0002A44D090F87030012B2A
:101ECC0042D0012380F8703000234367212380F82F
:101EDC007130FEF72DFBA4F850800646A4F8528012
:101EEC00B4F85220009792B2334652B940212046A2
:101EFC00FFF7A4FF58B9202384F8713084F87000E0
:101F0C0006E0002280212046FFF798FF18B103203D
:101F1C0002B0BDE8F081A3682268B3F5805F0DD1F3
:101F2C0023695BB935F8023BC3F308031385B4F896
:101F3C005230013B9BB2A4F85230D1E72B78138579
:101F4C000135F4E70120E3E70220E1E773B504462D
:101F5C0000264667FEF7ECFA23681B681A0705464D
:101F6C0017D423681B685B070AD56FF07E43009378
:101F7C0000222B464FF480012046FFF75FFFA0B9EB
:101F8C002023002084F8713084F8700084F87230BB
:101F9C000CE06FF07E430093324603464FF4001181
:101FAC002046FFF74BFF0028DBD0032002B070BDAA
:101FBC0010B5044660B390F8713003F0FF021BB902
:101FCC0080F8702000F06EFA2268242384F87130B7
:101FDC00136823F0010313602046FFF7B9FD0128B5
:101FEC0016D0636A13B12046FFF7D4FE23685A68F3
:101FFC0022F490425A609A6822F02A029A601A6877
:10200C0042F0010220461A60BDE81040FFF79EBF67
:10201C00012010BD7047000030B5ADB0142444222F
:10202C00002106A800F028FB2246002101A800F0A0
:10203C0023FB0021542217A800F01EFBFEF7C6FB61
:10204C001A4AD2F8903023F01803C2F890300123CA
:10205C0008930C931193129360222023032506946A
:10206C000E9200240222139306A8072310921592B5
:10207C00169214930D94FEF785FC0F23294601A8A4
:10208C0001930295039404940594FEF7CDFE17A8D2
:10209C0017951F942094FFF709F84FF40070FEF782
:1020AC00A5FBFFF747F92DB030BD00BF0010024073
:1020BC002DE9804899B0FEF723FAFFF7ADFF142203
:1020CC0000210DA800F0D8FAA04BA148DA6CA14E63
:1020DC00A14F42F00402DA64DA6C02F004020092BE
:1020EC00009ADA6C42F00102DA64DA6C02F0010256
:1020FC000192019ADA6C42F00202DA64DB6C03F0B2
:10210C000203002202930821029BFEF759FB0823CD
:10211C0000240DA90D938E480F9401230E93109457
:10212C00FEF79AFA8D4AB4604FF4E1330C25304631
:10213C0086E80C00F46034617561B461F46134625A
:10214C007462FFF735FF8648864984604FF4165356
:10215C0080E80A00C460046145618461C461046262
:10216C004462FFF725FF21461C2206A87E4D0394EE
:10217C000494059400F080FA2C2221460DA800F05E
:10218C007BFA7A4BAC604FF07F0B42F20F7A284609
:10219C0085E808082C616C61AC61C5F80CA0FFF7F0
:1021AC0003FA03A928460394049405944FF060099C
:1021BC00FFF70CFB4FF43E78224606A928460894FC
:1021CC0009940A940B940C94CDF81890CDF81C80BB
:1021DC00FFF73CFA4FF400530DA9129328464FF029
:1021EC00007315930D940E940F94109411941394F2
:1021FC00149416941794FFF711FB284600F01AF963
:10220C001C2221460DA806940794089400F034FA79
:10221C004FF08043384687E80808BC603C61BC61DD
:10222C00C7F80CA0FFF7C0F906A938460694089425
:10223C00FFF7CCFA22460DA938460F941194CDF82D
:10224C003490CDF83880FFF701FA384600F0F2F8F8
:10225C00224621462520FEF783F92520FEF7B4F906
:10226C00224621462620FEF77BF92620FEF7ACF904
:10227C0021462846FFF77EFA21463846FFF77AFAC0
:10228C003B4D3C4C2B785BB3617822783A4FDFF8AE
:10229C0000E1DFF8008130390A2359436420303AD9
:1022AC0000FB0212A17830390A44344902F00700CD
:1022BC000A60002A4FEAE2013860CEF80010304F75
:1022CC0014DA304928223046FFF7E9FD274BD8F8BD
:1022DC0000205A634FF080433A685A6300232B70F6
:1022EC00032221463046FFF7E7FACBE71F2902DD30
:1022FC0028222549E7E7042802DD28222349E2E7C2
:10230C00D211012A09BF01F00F016FF00D030E234A
:10231C00CEF80010594301F53E710138C8F8001091
:10232C00032803D8DFE800F006090C0F4FF43E73C6
:10233C003B60CBE74FF44D73FAE740F23933F7E7E4
:10234C0040F23E33F4E740F2B223F1E700100240D2
:10235C0000040048AC0100206C0100200044004047
:10236C00B00000200038014028010020002C014062
:10237C009800002099000020AC000020A400002050
:10238C0068010020000000205000002028000020E0
:10239C0024020020A8000020054B06490648012213
:1023AC001A700D220A230A710522CB70FFF777BD34
:1023BC009800002099000020AC0100200A4B1A6EF6
:1023CC0042F001021A661A6E82B002F0010200920B
:1023DC00009A9A6D42F080529A659B6D03F080537F
:1023EC000193019B02B070470010024003680F4A32
:1023FC00934282B00BD10E4B1A6E42F400621A66F5
:10240C001B6E03F400630093009B02B07047B3F1A2
:10241C00804FFAD103F504339A6D42F001029A65AC
:10242C009B6D03F001030193019BEEE7002C01402F
:10243C000010024010B5044688B01422002103A8F5
:10244C0000F01AF92368154A934217D1144BDA6C31
:10245C0042F00102DA64DB6C03F001030193019B8F
:10246C004FF4807303930223049303A901234FF0C9
:10247C0090400793FEF7F0F808B010BDB3F1804F11
:10248C00FAD103F50433DA6C42F00102DA64DB6C46
:10249C0003F001030293029B2023E3E7002C01408D
:1024AC000010024030B514228BB0044600210DEB15
:1024BC00020000F0E1F82368284A934222D1284B0D
:1024CC001A6E42F480421A661A6E02F4804201922D
:1024DC00019ADA6C42F00102DA64DB6C03F001035E
:1024EC000293029B4FF4C0630593022306930323CC
:1024FC0008930723099305A94FF09040FEF7ACF819
:10250C000BB030BD174A9342FAD1154B9A6D42F479
:10251C0000329A659A6D02F400320392039ADA6CD7
:10252C0042F00102DA64DB6C03F001030493049BB8
:10253C000423032405930225072305A94FF090409B
:10254C00099306950894FEF787F84FF4004305931A
:10255C0000230695079308940994CCE700380140B2
:10256C0000100240004400407047FEE7FEE7FEE723
:10257C00FEE7704770477047FDF7D2BF0148FFF781
:10258C0047BA00BFB00000200148FFF741BA00BFB6
:10259C00AC0100200F49D1F8883043F47003C1F826
:1025AC0088300D4B1A68002042F001021A609860C6
:1025BC001A6822F0A85222F410221A604FF48052AA
:1025CC00DA601A6822F480221A6098614FF0006376
:1025DC008B60704700ED00E000100240DFF834D053
:1025EC00002103E00C4B5B58435004310B480C4B5F
:1025FC0042189A42F6D30B4A02E0002342F8043BFD
:10260C00094B9A42F9D3FFF7C5FF00F011F8FFF719
:10261C004FFDFEE7000001201827000800000020F5
:10262C007C0000207C00002028020020FEE7000037
:10263C0070B50D4E0D4CA41BA4100025A54209D15C
:10264C000B4E0C4C00F020F8A41BA4100025A54246
:10265C0005D170BD56F8253098470135EEE756F890
:10266C00253098470135F2E710270008102700089D
:10267C00102700081427000802440346934200D197
:10268C00704703F8011BF9E7F8B500BFF8BC08BCAC
:10269C009E467047F8B500BFF8BC08BC9E46704714
:1026AC000104020800101010041010100210101079
:1026BC0008000000000000000001020304060708E7
:1026CC00090000000001020304000000A0860100C4
:1026DC00400D0300801A060000350C0040420F002C
:1026EC0080841E0000093D0000127A000024F400D2
:0C26FC0000366E010048E801006CDC02B2
:08270800F4DAFF7F010000007C
:04271000B10100080B
:042714008D0100082B
:102718006572722121506C6561736520456E746520
:102728007220506F736974697665204E756D6265A5
:10273800720A0D00000000006572722121506C655C
:1027480061736520456E74657220307E3420537045
:102758006565640A0D00000000000000000000002C
:102768006572722121506C6561736520456E7465D0
:102778007220307E33312053746565720A0D000073
:0C278800000000000000000000093D00FF
:04000005080025E9E1
:00000001FF
